:020000040800F2
:100000000050002045060008E1050008E905000849
:10001000F1050008F90500080106000800000000CD
:1000200000000000000000000000000009060008B9
:100030001506000800000000210600082D06000833
:100040008D0600088D0600088D0600088D06000844
:100050008D0600088D0600088D0600088D06000834
:100060008D0600088D0600088D0600088D06000824
:100070008D0600088D0600088D0600088D06000814
:100080008D0600088D0600088D0600088D06000804
:100090008D0600088D0600088D0600088D060008F4
:1000A0008D0600088D0600088D0600088D060008E4
:1000B0008D0600088D0600088D0600088D060008D4
:1000C0008D0600088D0600088D0600088D060008C4
:1000D0008D0600088D0600088D0600088D060008B4
:1000E0008D0600088D0600088D060008000000003F
:1000F0000000000000000000000000000000000000
:0C01000000000000000000005FF808F1A3
:10010C0010B5054C237833B9044B13B10448AFF345
:10011C0000800123237010BD0C00002000000000A3
:10012C00B026000808B5034B1BB103490348AFF3D5
:10013C00008008BD0000000010000020B026000860
:10014C0080B582B000AF00F09DFA00F02BF800F003
:10015C0033F900F083F800F0C5F80023BB800023CE
:10016C003B600023FB800C4800F04EF90346FB80FB
:10017C00FB881B0A9BB2DBB23B71FB88DBB27B7149
:10018C003B463A1D0549064801F0C0F90346002BD1
:10019C00E9D000F033F9E6E72800002080000020C9
:1001AC005800002080B594B000AF07F12803282236
:1001BC000021184602F04AFA07F1140300221A60D3
:1001CC005A609A60DA601A613B1D00221A605A600C
:1001DC009A60DA600123BB624FF48033FB62002328
:1001EC003B630123BB6302237B644FF48033BB640A
:1001FC004FF4E013FB6407F12803184601F0BEFC32
:10020C000346002B01D000F0F9F80F237B61022389
:10021C00BB610023FB614FF480633B6200237B6274
:10022C0007F114030221184601F02AFF0346002BA4
:10023C0001D000F0E3F802237B604FF40043FB6035
:10024C003B1D184602F096F80346002B01D000F037
:10025C00D5F800BF5037BD4680BD000080B584B0D6
:10026C0000AF3B1D00221A605A609A601B4B1C4A5F
:10027C001A601A4B00229A60184B01221A73174B02
:10028C0000221A75154B4FF46022DA61134B0022D1
:10029C005A60124B01221A61104800F055FA0346BD
:1002AC00002B01D000F0AAF808237B600123BB606F
:1002BC000023FB603B1D1946084800F0DDFC03469B
:1002CC00002B01D000F09AF8044800F069FE0348B6
:1002DC0000F012FB00BF1037BD4680BD2800002087
:1002EC000024014080B58AB000AF304B304A1A6010
:1002FC002E4B10225A602D4B00229A602B4B002261
:10030C00DA602A4B4FF480321A61284B4FF480127A
:10031C005A61264B00221A76244B00225A76234B24
:10032C0000229A76214B0022DA76204B00221A7793
:10033C001E4B00225A771D4800F0E0FE0346002BAE
:10034C0001D000F05BF8194801F09CF800237B61A8
:10035C000023BB610123FB6100233B6000237B6016
:10036C000023BB600023FB6000233B6101233B6245
:10037C000E237B623B4619460C4800F0BAFF03463D
:10038C00002B01D000F03AF80A4B02221A61094BFB
:10039C0000229A60074B0022DA60064B40F22132B1
:1003AC001A6000BF2837BD4680BD00BF5800002032
:1003BC00006400408000002080B483B000AF0E4B7E
:1003CC009B690D4A43F0200393610B4B9B6903F02F
:1003DC0020037B607B68084B9B69074A43F008034A
:1003EC009361054B9B6903F008033B603B6800BFBE
:1003FC000C37BD4680BC70470010024080B400AF83
:10040C0072B600BF00BFFDE780B584B000AF786066
:10041C000023FB816421786800F01CFB0346002B51
:10042C0004D1786800F01CFC0346FB81FB8918465C
:10043C001037BD4680BD000080B485B000AF154BB1
:10044C009B69144A43F001039361124B9B6903F0BF
:10045C000103BB60BB680F4BDB690E4A43F0805352
:10046C00D3610C4BDB6903F080537B607B680A4BD8
:10047C005B68FB60FB6823F0E063FB60FB6843F0A8
:10048C008063FB60044AFB68536000BF1437BD46B1
:10049C0080BC7047001002400000014080B588B05D
:1004AC0000AF786007F1100300221A605A609A605E
:1004BC00DA607B681B68144A934221D1134B9B6909
:1004CC00124A43F400739361104B9B6903F400735D
:1004DC00FB60FB680D4B9B690C4A43F0080393616E
:1004EC000A4B9B6903F00803BB60BB6801233B61AB
:1004FC0003237B6107F110031946054801F0BAF993
:10050C0000BF2037BD4680BD0024014000100240D2
:10051C00000C014080B58AB000AF786007F114037D
:10052C0000221A605A609A60DA607B681B68254A60
:10053C00934243D1244BDB69234A43F00073D361CC
:10054C00214BDB6903F000733B613B691E4B9B69DC
:10055C001D4A43F0080393611B4B9B6903F008038E
:10056C00FB60FB684FF480737B610023BB6100234D
:10057C00FB6107F114031946144801F07BF94FF4A1
:10058C0000737B610223BB6103233B6207F11403FD
:10059C0019460E4801F06EF90D4B5B687B627B6A65
:1005AC0023F4C0437B627B6A43F0E0637B627B6A2B
:1005BC0043F480437B62064A7B6A536000BF283752
:1005CC00BD4680BD0064004000100240000C01409C
:1005DC000000014080B400AF00BFFDE780B400AF65
:1005EC0000BFFDE780B400AF00BFFDE780B400AFF3
:1005FC0000BFFDE780B400AF00BFFDE780B400AFE3
:10060C0000BFBD4680BC704780B400AF00BFBD4684
:10061C0080BC704780B400AF00BFBD4680BC704743
:10062C0080B500AF00F074F800BF80BD80B400AF9F
:10063C0000BFBD4680BC7047FFF7F8FF0B480C4964
:10064C000C4A002302E0D458C4500433C4188C4222
:10065C00F9D3094A094C002301E013600432A24289
:10066C00FBD301F0FBFFFFF76BFD70470000002090
:10067C000C000020102700080C0000209C0000201B
:10068C00FEE7000080B500AF084B1B68074A43F03B
:10069C0010031360032001F0B9F80F2000F008F8E4
:1006AC00FFF7CAFE0023184680BD00BF00200240A1
:1006BC0080B582B000AF7860124B1A68124B1B7871
:1006CC0019464FF47A73B3FBF1F3B2FBF3F318460C
:1006DC0001F0C3F80346002B01D001230EE07B6828
:1006EC000F2B0AD8002279684FF0FF3001F099F8EF
:1006FC00064A7B681360002300E001231846083784
:10070C00BD4680BD00000020080000200400002031
:10071C0080B400AF054B1B781A46054B1B6813447D
:10072C00034A136000BFBD4680BC70470800002020
:10073C009800002080B400AF024B1B681846BD46E1
:10074C0080BC70479800002080B586B000AF786000
:10075C000023FB7500233B610023BB600023FB607F
:10076C007B68002B01D10123BEE07B689B68002BCA
:10077C007B689B6A002B09D17B680022DA627B685C
:10078C00002283F824207868FFF788FE786800F050
:10079C00C5FB0346FB757B689B6A03F01003002BBB
:1007AC0040F09980FB7D002B40F095807B689B6A24
:1007BC0023F4885323F0020343F002027B689A620D
:1007CC007B685A687B68DB691A437B681B7B5B0020
:1007DC001343BA681343BB607B689B68B3F5807F97
:1007EC0003D07B689B68012B02D14FF4807300E02F
:1007FC0000233A6913433B617B681B7D012B19D1A4
:10080C007B681B7B002B09D17B689B69013B5A03DE
:10081C003B69134343F400633B610BE07B689B6AC9
:10082C0043F020027B689A627B68DB6A43F001022A
:10083C007B68DA627B681B685B6823F469417B68C0
:10084C001B683A690A435A607B681B689A68284B94
:10085C0013407A681268B9680B4393607B689B6895
:10086C00B3F5807F03D07B689B68012B04D17B6838
:10087C001B69013B1B05FB607B681B68DB6A23F46F
:10088C0070017B681B68FA680A43DA627B681B6834
:10089C009A68184B1340BA689A420BD17B680022B5
:1008AC00DA627B689B6A23F0030343F001027B68E6
:1008BC009A6218E07B689B6A23F0120343F01002E3
:1008CC007B689A627B68DB6A43F001027B68DA62C0
:1008DC000123FB7507E07B689B6A43F010027B6881
:1008EC009A620123FB75FB7D18461837BD4680BD07
:1008FC00FDF7E1FFFE0E1FFF80B584B000AF7860FE
:10090C000023FB737B6893F82430012B01D1022365
:10091C0098E07B68012283F82420786800F0A4FA20
:10092C000346FB73FB7B002B40F087807B689B6A44
:10093C0023F4407323F0010343F480727B689A62C2
:10094C007B681B68414A934205D1414B5B6803F4B9
:10095C007023002B15D17B689B6A23F480127B6873
:10096C009A627B681B685B6803F48063002B26D05B
:10097C007B689B6A23F4405343F480527B689A62F1
:10098C001DE07B689B6A43F480127B689A627B68EB
:10099C001B682F4A934204D07B681B682B4A9342F6
:1009AC000DD12B4B5B6803F48063002B07D07B6865
:1009BC009B6A23F4405343F480527B689A627B68B1
:1009CC009B6A03F48053002B06D07B68DB6A23F010
:1009DC0006027B68DA6202E07B680022DA627B68DE
:1009EC00002283F824207B681B686FF002021A60D7
:1009FC007B681B689B6803F46023B3F5602F13D1ED
:100A0C007B681B68114A934205D1114B5B6803F458
:100A1C007023002B08D17B681B689A687B681B6865
:100A2C0042F4A0029A600CE07B681B689A687B68B1
:100A3C001B6842F480129A6003E07B68002283F802
:100A4C002420FB7B18461037BD4680BD0028014092
:100A5C000024014090B587B000AF78603960002366
:100A6C007B610023FB6000233B61FFF763FE786131
:100A7C007B681B689B6803F48073002B0BD07B682E
:100A8C009B6A43F020027B689A627B68002283F8A1
:100A9C0024200123D3E07B681B685B6803F480731C
:100AAC00002B31D17B681B68DB6A03F47003002BCD
:100ABC002AD121E03B68B3F1FF3F1DD03B68002BEE
:100ACC0007D0FFF737FE02467B69D31A3A689A4281
:100ADC0012D27B681B681B6803F00203002B0BD13E
:100AEC007B689B6A43F004027B689A627B680022F5
:100AFC0083F824200323A2E07B681B681B6803F0A7
:100B0C000203002BD6D070E04F4B1C68022001F082
:100B1C00E7FC0346B4FBF3F27B681B6819694B4B8B
:100B2C000B40002B18D17B681B68D968484B0B40D5
:100B3C00002B11D17B681B681969464B0B40002BAD
:100B4C0008D17B681B68D968434B0B40002B01D143
:100B5C00142320E029231EE07B681B6819693D4B98
:100B6C000B40002B06D17B681B68D9683A4B0B40B5
:100B7C00002B0DD07B681B681969384B0B40002B80
:100B8C0008D17B681B68D968344B0B40002B01D112
:100B9C00542300E0FC2302FB03F33B6121E03B68A0
:100BAC00B3F1FF3F1AD03B68002B07D0FFF7C2FD13
:100BBC0002467B69D31A3A689A420FD2FB683A69AB
:100BCC009A420BD97B689B6A43F004027B689A6259
:100BDC007B68002283F82420032330E0FB68013378
:100BEC00FB60FB683A699A42D9D87B681B686FF046
:100BFC0012021A607B689B6A43F400727B689A62EB
:100C0C007B681B689B6803F46023B3F5602F15D1D8
:100C1C007B681B7B002B11D17B689B6A23F4807251
:100C2C007B689A627B689B6A03F48053002B05D126
:100C3C007B689B6A43F001027B689A62002318462A
:100C4C001C37BD4690BD00BF0000002024499224F3
:100C5C00244992009224491292244900499224007A
:100C6C0080B483B000AF78607B681B68DB6C18467F
:100C7C000C37BD4680BC704780B485B000AF78603F
:100C8C0039600023FB730023BB607B6893F824302E
:100C9C00012B01D10223DCE07B68012283F82420A4
:100CAC003B685B68062B1CD87B681B68596B3B68E0
:100CBC005A6813469B001344053B1F2202FA03F3A8
:100CCC00DB4319403B6818683B685A6813469B0025
:100CDC001344053B00FA03F27B681B680A435A6312
:100CEC003CE03B685B680C2B1CD87B681B68196B61
:100CFC003B685A6813469B001344233B1F2202FA9D
:100D0C0003F3DB4319403B6818683B685A68134689
:100D1C009B001344233B00FA03F27B681B680A43D5
:100D2C001A631BE07B681B68D96A3B685A681346D8
:100D3C009B001344413B1F2202FA03F3DB4319408F
:100D4C003B6818683B685A6813469B001344413B48
:100D5C0000FA03F27B681B680A43DA623B681B6883
:100D6C00092B1CD97B681B68D9683B681A68134629
:100D7C005B0013441E3B072202FA03F3DB431940CA
:100D8C003B6898683B681A6813465B0013441E3B2B
:100D9C0000FA03F27B681B680A43DA6019E07B688F
:100DAC001B6819693B681A6813465B0013440722D9
:100DBC0002FA03F3DB4319403B6898683B681A68F6
:100DCC0013465B00134400FA03F27B681B680A436A
:100DDC001A613B681B68102B03D03B681B68112BF6
:100DEC0032D17B681B681D4A934225D17B681B68F6
:100DFC009B6803F40003002B26D17B681B689A6860
:100E0C007B681B6842F400029A603B681B68102BDD
:100E1C001AD1134B1B68134AA2FB03239A0C1346DB
:100E2C009B0013445B00BB6002E0BB68013BBB60F2
:100E3C00BB68002BF9D107E07B689B6A43F020026A
:100E4C007B689A620123FB737B68002283F8242061
:100E5C00FB7B18461437BD4680BC7047002401400C
:100E6C000000002083DE1B4380B584B000AF7860A7
:100E7C000023FB600023BB607B681B689B6803F04E
:100E8C000103012B40D07B681B689A687B681B6848
:100E9C0042F001029A601F4B1B681F4AA2FB0323FE
:100EAC009B0CBB6002E0BB68013BBB60BB68002BCA
:100EBC00F9D1FFF73FFCF8601FE0FFF73BFC02465F
:100ECC00FB68D31A022B18D97B681B689B6803F04C
:100EDC000103012B11D07B689B6A43F010027B68E5
:100EEC009A627B68DB6A43F001027B68DA627B689A
:100EFC00002283F82420012307E07B681B689B6891
:100F0C0003F00103012BD8D1002318461037BD463E
:100F1C0080BD00BF0000002083DE1B4380B584B081
:100F2C0000AF78600023FB607B681B689B6803F054
:100F3C000103012B2ED17B681B689A687B681B68A8
:100F4C0022F001029A60FFF7F5FBF8601BE0FFF757
:100F5C00F1FB0246FB68D31A022B14D97B681B6881
:100F6C009B6803F00103012B0DD17B689B6A43F056
:100F7C0010027B689A627B68DB6A43F001027B6833
:100F8C00DA62012307E07B681B689B6803F00103AE
:100F9C00012BDCD0002318461037BD4680BD000065
:100FAC0090B587B000AF78600023FB750023FB6021
:100FBC007B6893F82430012B01D1022397E07B68E6
:100FCC00012283F824207868FFF7A8FF0346FB75FD
:100FDC007868FFF749FF0346FB75FB7D002B40F05B
:100FEC0081807B689B6A23F4885323F0020343F0CF
:100FFC0002027B689A62404B1C68022001F070FA76
:10100C000346B4FBF3F35B00FB6002E0FB68013BBF
:10101C00FB60FB68002BF9D17B681B689A687B68C6
:10102C001B6842F008029A60FFF784FB38611BE0F2
:10103C00FFF780FB02463B69D31A0A2B14D97B6855
:10104C001B689B6803F00803002B0DD07B689B6A20
:10105C0023F0120343F010027B689A627B68002233
:10106C0083F82420012342E07B681B689B6803F013
:10107C000803002BDCD17B681B689A687B681B68B3
:10108C0042F004029A60FFF755FB38611BE0FFF752
:10109C0051FB02463B69D31A0A2B14D97B681B6897
:1010AC009B6803F00403002B0DD07B689B6A23F034
:1010BC00120343F010027B689A627B68002283F86B
:1010CC002420012313E07B681B689B6803F0040356
:1010DC00002BDCD17B689B6A23F0030343F00102F5
:1010EC007B689A627B68002283F82420FB7D18467B
:1010FC001C37BD4690BD00BF0000002080B584B0F9
:10110C0000AF78607B68002B01D10123EDE07B6898
:10111C0093F82030DBB2002B02D17868FFF7FAF994
:10112C007B681B681A687B681B6842F001021A60B6
:10113C00FFF700FBF86012E0FFF7FCFA0246FB68D1
:10114C00D31A0A2B0BD97B685B6A43F400327B6899
:10115C005A627B68052283F820200123C5E07B6856
:10116C001B685B6803F00103002BE5D07B681B68F0
:10117C001A687B681B6822F002021A60FFF7DAFA21
:10118C00F86012E0FFF7D6FA0246FB68D31A0A2B76
:10119C000BD97B685B6A43F400327B685A627B68CC
:1011AC00052283F8202001239FE07B681B685B6885
:1011BC0003F00203002BE5D17B681B7E012B08D1C9
:1011CC007B681B681A687B681B6842F080021A6097
:1011DC0007E07B681B681A687B681B6822F080023A
:1011EC001A607B685B7E012B08D17B681B681A68D0
:1011FC007B681B6842F040021A6007E07B681B6842
:10120C001A687B681B6822F040021A607B689B7E20
:10121C00012B08D17B681B681A687B681B6842F03D
:10122C0020021A6007E07B681B681A687B681B68E1
:10123C0022F020021A607B68DB7E012B08D17B68D0
:10124C001B681A687B681B6822F010021A6007E0A2
:10125C007B681B681A687B681B6842F010021A6076
:10126C007B681B7F012B08D17B681B681A687B6825
:10127C001B6842F008021A6007E07B681B681A685A
:10128C007B681B6822F008021A607B685B7F012B6D
:10129C0008D17B681B681A687B681B6842F00402E3
:1012AC001A6007E07B681B681A687B681B6822F071
:1012BC0004021A607B689A687B68DB681A437B6857
:1012CC001B691A437B685B6942EA03017B685B68B4
:1012DC005A1E7B681B680A43DA617B6800225A62DB
:1012EC007B68012283F82020002318461037BD4666
:1012FC0080BD80B487B000AF786039607B681B68B4
:10130C007B617B6893F82030FB74FB7C012B03D052
:10131C00FB7C022B40F0AA807B69D3F8003243F0AF
:10132C0001027B69C3F800223B685B6903F01F0371
:10133C00012202FA03F3FB607B69D3F81C22FB68E1
:10134C00DB431A407B69C3F81C223B68DB69002B2A
:10135C0023D17B69D3F80C22FB68DB431A407B69F1
:10136C00C3F80C223B68DB6819043B685B689BB2D2
:10137C003A68526919437B69483243F832103B682A
:10138C009B6819043B681B689AB23B685B690A430B
:10139C0079694833DB000B445A603B68DB69012BED
:1013AC0022D17B69D3F80C22FB681A437B69C3F802
:1013BC000C223B681B6819043B685B689BB23A685B
:1013CC00526919437B69483243F832103B689B6879
:1013DC0019043B68DB689AB23B685B690A4379691C
:1013EC004833DB000B445A603B689B69002B09D1E6
:1013FC007B69D3F80422FB68DB431A407B69C3F892
:10140C00042207E07B69D3F80422FB681A437B694A
:10141C00C3F804223B681B69002B09D17B69D3F804
:10142C001422FB68DB431A407B69C3F8142207E0E3
:10143C007B69D3F81422FB681A437B69C3F8142226
:10144C003B681B6A012B07D17B69D3F81C22FB6814
:10145C001A437B69C3F81C227B69D3F8003223F052
:10146C0001027B69C3F80022002306E07B685B6AFB
:10147C0043F480227B685A62012318461C37BD4610
:10148C0080BC704780B584B000AF78607B6893F8FF
:10149C002030DBB2012B2ED17B68022283F8202076
:1014AC007B681B681A687B681B6822F001021A6053
:1014BC00FFF740F9F86012E0FFF73CF90246FB68D1
:1014CC00D31A0A2B0BD97B685B6A43F400327B6816
:1014DC005A627B68052283F82020012312E07B6886
:1014EC001B685B6803F00103002BE5D17B680022CD
:1014FC005A62002306E07B685B6A43F400227B6837
:10150C005A62012318461037BD4680BD80B489B09D
:10151C0000AFF860B9607A603B60FB6893F82030EC
:10152C00FB77FB681B689B68BB61FB7F012B03D0BF
:10153C00FB7F022B40F0AD80BB6903F08063002B76
:10154C000AD1BB6903F00063002B05D1BB6903F022
:10155C008053002B00F09580BB691B0E03F0030336
:10156C007B6101227B699A403B681A60BB689B686F
:10157C00002B0DD1BB681B685A05BB68DB68F9688A
:10158C0009681A437B6918331B010B441A600FE07E
:10159C00BB685B68DA00BB689B681A43BB68DB6896
:1015AC00F96809681A437B6918331B010B441A60EC
:1015BC00FB681968BB681A697B6918331B010B44FB
:1015CC0004331A60BB681B7D012B11D1FB681A68B0
:1015DC007B6918331B01134404331B68FA681168C8
:1015EC0043F480727B6918331B010B4404331A607B
:1015FC007B6807331B781A067B6806331B781B0441
:10160C001A437B6805331B781B0213437A68043238
:10161C0012781046FA68116843EA00027B691B01D4
:10162C000B4403F5C6731A607B6803331B781A06E8
:10163C007B6802331B781B041A437B6801331B78CD
:10164C001B0213437A6812781046FA68116843EA51
:10165C0000027B691B010B4403F5C4731A60FB6821
:10166C001A687B6918331B0113441B68FA681168EC
:10167C0043F001027B6918331B010B441A600023F1
:10168C000EE0FB685B6A43F40012FB685A620123AC
:10169C0006E0FB685B6A43F48022FB685A62012314
:1016AC0018462437BD4680BC7047000080B485B016
:1016BC0000AF78607B6803F00703FB600C4BDB68C2
:1016CC00BB60BA684FF6FF031340BB60FB681A029D
:1016DC00BB68134343F0BF6343F40033BB60044A5D
:1016EC00BB68D36000BF1437BD4680BC704700BFD9
:1016FC0000ED00E080B400AF044BDB681B0A03F084
:10170C0007031846BD4680BC704700BF00ED00E0E3
:10171C0080B483B000AF03463960FB7197F9073092
:10172C00002B0ADB3B68DAB20C4997F9073012013F
:10173C00D2B20B4483F800230AE03B68DAB20849C2
:10174C00FB7903F00F03043B1201D2B20B441A765F
:10175C0000BF0C37BD4680BC704700BF00E100E005
:10176C0000ED00E080B489B000AFF860B9607A6039
:10177C00FB6803F00703FB61FB69C3F10703042B50
:10178C0028BF0423BB61FB690433062B02D9FB6918
:10179C00033B00E000237B614FF0FF32BB6902FA90
:1017AC0003F3DA43BB681A407B699A404FF0FF3170
:1017BC007B6901FA03F3D9437B680B40134318464A
:1017CC002437BD4680BC704780B582B000AF7860CE
:1017DC007B68013BB3F1807F01D301230FE00A4A00
:1017EC007B68013B53600F214FF0FF30FFF790FFF8
:1017FC00054B00229A60044B07221A6000231846FE
:10180C000837BD4680BD00BF10E000E080B582B057
:10181C0000AF78607868FFF749FF00BF0837BD4616
:10182C0080BD80B586B000AF0346B9607A60FB73AB
:10183C0000237B61FFF75EFF78617A68B96878698D
:10184C00FFF790FF024697F90F3011461846FFF745
:10185C005FFF00BF1837BD4680BD80B582B000AFBA
:10186C0078607868FFF7B0FF034618460837BD4626
:10187C0080BD000080B48BB000AF7860396000236D
:10188C007B6200233B6269E101227B6A02FA03F36B
:10189C00FB613B681B68FA691340BB61BA69FB6961
:1018AC009A4240F058813B685B689A4A93425ED0FA
:1018BC00984A934275D8984A934258D0964A934284
:1018CC006FD8964A934252D0944A934269D8944A1C
:1018DC0093424CD0924A934263D8924A934246D058
:1018EC00904A93425DD8122B2AD8122B59D801A2B8
:1018FC0052F823F07B1900085519000867190008E5
:10190C00A9190008AF190008AF190008AF19000891
:10191C00AF190008AF190008AF190008AF1900087B
:10192C00AF190008AF190008AF190008AF1900086B
:10193C00AF190008AF1900085D19000871190008EB
:10194C00794A934213D02CE03B68DB683B6229E078
:10195C003B68DB6804333B6224E03B68DB6808339C
:10196C003B621FE03B68DB680C333B621AE03B6870
:10197C009B68002B02D104233B6213E03B689B68FD
:10198C00012B05D108233B627B68FA691A6109E0D7
:10199C0008233B627B68FA695A6103E000233B62CF
:1019AC0000E000BFBB69FF2B01D87B6801E07B68BE
:1019BC0004337B61BB69FF2B02D87B6A9B0002E07E
:1019CC007B6A083B9B003B617B691A680F213B6972
:1019DC0001FA03F3DB431A40396A3B6901FA03F35A
:1019EC001A437B691A603B685B6803F08053002BD9
:1019FC0000F0B1804D4B9B694C4A43F0010393615D
:101A0C004A4B9B6903F00103BB60BB68484A7B6A85
:101A1C009B08023352F82330FB607B6A03F003030C
:101A2C009B000F2202FA03F3DB43FA681340FB60BE
:101A3C007B68404A934213D07B683F4A93420DD057
:101A4C007B683E4A934207D07B683D4A934201D162
:101A5C00032306E0042304E0022302E0012300E058
:101A6C0000237A6A02F0030292009340FA6813434F
:101A7C00FB602F497B6A9B080233FA6841F82320EC
:101A8C003B685B6803F48013002B06D02D4B9A68DF
:101A9C002C49BB6913438B6006E02A4B9A68BB69DF
:101AAC00DB43284913408B603B685B6803F40013ED
:101ABC00002B06D0234BDA682249BB691343CB6059
:101ACC0006E0204BDA68BB69DB431E491340CB6050
:101ADC003B685B6803F40033002B06D0194B5A6843
:101AEC001849BB6913434B6006E0164B5A68BB6937
:101AFC00DB43144913404B603B685B6803F4803351
:101B0C00002B21D00F4B1A680E49BB6913430B6095
:101B1C0021E000BF00003210000031100000221044
:101B2C0000002110000012100000111000100240E3
:101B3C000000014000080140000C01400010014071
:101B4C0000140140000401400B4B1A68BB69DB43D5
:101B5C00094913400B607B6A01337B623B681A684E
:101B6C007B6A22FA03F3002B7FF48EAE00BF00BF1A
:101B7C002C37BD4680BC70470004014080B586B050
:101B8C0000AF78607B68002B01D1012372E27B6887
:101B9C001B6803F00103002B00F08780924B5B68FD
:101BAC0003F00C03042B0CD08F4B5B6803F00C037D
:101BBC00082B12D18C4B5B6803F48033B3F5803F58
:101BCC000BD1894B1B6803F40033002B6CD07B6862
:101BDC005B68002B68D101234CE27B685B68B3F532
:101BEC00803F06D1804B1B687F4A43F480331360DF
:101BFC002EE07B685B68002B0CD17B4B1B687A4A10
:101C0C0023F480331360784B1B68774A23F48023CA
:101C1C0013601DE07B685B68B3F5A02F0CD1724B91
:101C2C001B68714A43F4802313606F4B1B686E4A28
:101C3C0043F4803313600BE06B4B1B686A4A23F44C
:101C4C0080331360684B1B68674A23F4802313604E
:101C5C007B685B68002B13D0FEF76CFD386108E0E5
:101C6C00FEF768FD02463B69D31A642B01D90323A6
:101C7C0000E25D4B1B6803F40033002BF0D014E042
:101C8C00FEF758FD386108E0FEF754FD02463B694B
:101C9C00D31A642B01D90323ECE1534B1B6803F4D7
:101CAC000033002BF0D100E000BF7B681B6803F011
:101CBC000203002B63D04C4B5B6803F00C03002B2E
:101CCC000BD0494B5B6803F00C03082B1CD1464B23
:101CDC005B6803F48033002B16D1434B1B6803F075
:101CEC000203002B05D07B681B69012B01D001235B
:101CFC00C0E13D4B1B6823F0F8027B685B69DB009D
:101D0C00394913430B603AE07B681B69002B20D0E8
:101D1C00364B01221A60FEF70DFD386108E0FEF724
:101D2C0009FD02463B69D31A022B01D90323A1E119
:101D3C002D4B1B6803F00203002BF0D02A4B1B68C1
:101D4C0023F0F8027B685B69DB00274913430B60C7
:101D5C0015E0264B00221A60FEF7ECFC386108E017
:101D6C00FEF7E8FC02463B69D31A022B01D9032388
:101D7C0080E11D4B1B6803F00203002BF0D17B6844
:101D8C001B6803F00803002B3AD07B689B69002B7F
:101D9C0019D0174B01221A60FEF7CCFC386108E011
:101DAC00FEF7C8FC02463B69D31A022B01D9032368
:101DBC0060E10D4B5B6A03F00203002BF0D00120B5
:101DCC0000F0BAFA1CE00A4B00221A60FEF7B2FCD3
:101DDC0038610FE0FEF7AEFC02463B69D31A022BCA
:101DEC0008D9032346E100BF001002400000424224
:101DFC0080044242924B5B6A03F00203002BE9D150
:101E0C007B681B6803F00403002B00F0A680002302
:101E1C00FB758B4BDB6903F08053002B0DD1884B8A
:101E2C00DB69874A43F08053D361854BDB6903F050
:101E3C008053BB60BB680123FB75824B1B6803F4AA
:101E4C008073002B18D17F4B1B687E4A43F4807340
:101E5C001360FEF76FFC386108E0FEF76BFC02467E
:101E6C003B69D31A642B01D9032303E1754B1B681F
:101E7C0003F48073002BF0D07B68DB68012B06D158
:101E8C006F4B1B6A6E4A43F0010313622DE07B68B3
:101E9C00DB68002B0CD16A4B1B6A694A23F00103E7
:101EAC001362674B1B6A664A23F0040313621CE03F
:101EBC007B68DB68052B0CD1614B1B6A604A43F0D5
:101ECC00040313625E4B1B6A5D4A43F00103136209
:101EDC000BE05B4B1B6A5A4A23F001031362584B0D
:101EEC001B6A574A23F0040313627B68DB68002BE0
:101EFC0015D0FEF71FFC38610AE0FEF71BFC02460A
:101F0C003B69D31A41F28832934201D90323B1E0E1
:101F1C004B4B1B6A03F00203002BEED014E0FEF7D0
:101F2C0009FC38610AE0FEF705FC02463B69D31A4E
:101F3C0041F28832934201D903239BE0404B1B6A48
:101F4C0003F00203002BEED1FB7D012B05D13C4BA2
:101F5C00DB693B4A23F08053D3617B68DB69002B40
:101F6C0000F08780364B5B6803F00C03082B61D0C4
:101F7C007B68DB69022B46D1334B00221A60FEF7DB
:101F8C00D9FB386108E0FEF7D5FB02463B69D31A52
:101F9C00022B01D903236DE0294B1B6803F000735E
:101FAC00002BF0D17B681B6AB3F5803F08D1244B22
:101FBC005B6823F400327B689B68214913434B60B8
:101FCC001F4B5B6823F474127B68196A7B685B6A2D
:101FDC000B431B4913434B601B4B01221A60FEF74A
:101FEC00A9FB386108E0FEF7A5FB02463B69D31A52
:101FFC00022B01D903233DE0114B1B6803F0007346
:10200C00002BF0D035E0104B00221A60FEF792FB4B
:10201C00386108E0FEF78EFB02463B69D31A022BAF
:10202C0001D9032326E0064B1B6803F00073002B39
:10203C00F0D11EE07B68DB69012B07D1012319E08D
:10204C000010024000700040600042420B4B5B6885
:10205C00FB60FB6803F480327B681B6A9A4206D1F2
:10206C00FB6803F470127B685B6A9A4201D001230F
:10207C0000E0002318461837BD4680BD0010024012
:10208C0080B584B000AF786039607B68002B01D1DB
:10209C000123D0E06A4B1B6803F007033A689A42AD
:1020AC0010D9674B1B6823F0070265493B68134343
:1020BC000B60634B1B6803F007033A689A4201D02C
:1020CC000123B8E07B681B6803F00203002B20D0CF
:1020DC007B681B6803F00403002B05D0594B5B682D
:1020EC00584A43F4E06353607B681B6803F00803B1
:1020FC00002B05D0534B5B68524A43F4605353603A
:10210C00504B5B6823F0F0027B689B684D4913438E
:10211C004B607B681B6803F00103002B40D07B688D
:10212C005B68012B07D1474B1B6803F40033002B72
:10213C0015D101237FE07B685B68022B07D1414BF3
:10214C001B6803F00073002B09D1012373E03D4B96
:10215C001B6803F00203002B01D101236BE0394B08
:10216C005B6823F003027B685B68364913434B6062
:10217C00FEF7E0FAF8600AE0FEF7DCFA0246FB68CC
:10218C00D31A41F28832934201D9032353E02D4BE9
:10219C005B6803F00C027B685B689B009A42EBD196
:1021AC00274B1B6803F007033A689A4210D2244B62
:1021BC001B6823F0070222493B6813430B60204B3A
:1021CC001B6803F007033A689A4201D0012332E0FE
:1021DC007B681B6803F00403002B08D0194B5B6869
:1021EC0023F4E0627B68DB68164913434B607B6821
:1021FC001B6803F00803002B09D0124B5B6823F417
:10220C0060527B681B69DB000E4913434B6000F086
:10221C0021F802460B4B5B681B0903F00F030A49BC
:10222C00CB5C22FA03F3094A1360094B1B6818466E
:10223C00FEF73EFA002318461037BD4680BD00BF9E
:10224C000020024000100240C826000800000020B8
:10225C000400002080B487B000AF0023FB60002393
:10226C00BB6000237B6100237B6000233B611E4B22
:10227C005B68FB60FB6803F00C03042B02D0082B9B
:10228C0003D027E0194B3B6127E0FB689B0C03F064
:10229C000F03174AD35C7B60FB6803F48033002B7D
:1022AC0010D0114B5B685B0C03F00103114AD35C3B
:1022BC00BB607B680D4A03FB02F2BB68B2FBF3F315
:1022CC007B6104E07B680C4A02FB03F37B617B6956
:1022DC003B6102E0054B3B6100BF3B6918461C3774
:1022EC00BD4680BC704700BF0010024000127A004F
:1022FC00E0260008F026000800093D0080B400AF7D
:10230C00024B1B681846BD4680BC7047000000207D
:10231C0080B500AFFFF7F2FF0246054B5B68DB0AA6
:10232C0003F007030349CB5C22FA03F3184680BD84
:10233C0000100240D826000880B485B000AF786049
:10234C000A4B1B680A4AA2FB03235B0A7A6802FB4E
:10235C0003F3FB6000BFFB685A1EFA60002BF9D137
:10236C0000BF00BF1437BD4680BC70470000002082
:10237C00D34D621080B586B000AF786000233B610E
:10238C000023FB607B681B6803F00103002B7DD0EE
:10239C000023FB754F4BDB6903F08053002B0DD1F1
:1023AC004C4BDB694B4A43F08053D361494BDB699F
:1023BC0003F08053BB60BB680123FB75464B1B6865
:1023CC0003F48073002B18D1434B1B68424A43F42F
:1023DC0080731360FEF7AEF9386108E0FEF7AAF9D6
:1023EC0002463B69D31A642B01D903236DE03A4BA7
:1023FC001B6803F48073002BF0D0364B1B6A03F47C
:10240C004073FB60FB68002B2ED07B685B6803F489
:10241C004073FA689A4227D02E4B1B6A23F4407300
:10242C00FB602E4B01221A602C4B00221A60294AA9
:10243C00FB681362FB6803F00103002B14D0FEF75A
:10244C0079F938610AE0FEF775F902463B69D31A4F
:10245C0041F28832934201D9032336E01D4B1B6AAB
:10246C0003F00203002BEED01A4B1B6A23F44072CC
:10247C007B685B68174913430B62FB7D012B05D10D
:10248C00144BDB69134A23F08053D3617B681B68C0
:10249C0003F00203002B08D00E4B5B6823F4404280
:1024AC007B689B680B4913434B607B681B6803F08C
:1024BC001003002B08D0074B5B6823F480027B6869
:1024CC00DB68044913434B60002318461837BD469C
:1024DC0080BD00BF0010024000700040400442422A
:1024EC0080B588B000AF786000237B610023FB616E
:1024FC0000233B610023FB600023BB617B68102B36
:10250C000AD07B68102B00F28A807B68012B45D0A7
:10251C007B68022B75D082E0464B5B68FB60454BB9
:10252C001B6803F08073002B7BD0FB689B0C03F0C3
:10253C000F03414AD35C3B61FB6803F48033002BEF
:10254C0015D03C4B5B685B0C03F001033B4AD35C3E
:10255C007B61FB6803F48033002B0DD0384A7B6918
:10256C00B2FBF3F23B6902FB03F3FB6104E03B6952
:10257C00344A02FB03F3FB612E4B5B6803F48003CC
:10258C00B3F5800F02D1FB69BB614AE0FB695B00CC
:10259C002D4AA2FB03235B08BB6142E0254B1B6A5F
:1025AC00FB60FB6803F44073B3F5807F08D1FB68D4
:1025BC0003F00203002B03D04FF40043BB611FE078
:1025CC00FB6803F44073B3F5007F09D1194B5B6AC8
:1025DC0003F00203002B03D049F64043BB610FE02C
:1025EC00FB6803F44073B3F5407F1CD1114B1B689F
:1025FC0003F40033002B16D04FF22443BB6112E0DE
:10260C0011E0FFF785FE02460A4B5B689B0B03F05B
:10261C00030301335B00B2FBF3F3BB6104E000BFC7
:10262C0002E000BF00E000BFBB6918462037BD4682
:10263C0080BD00BF00100240F426000804270008EB
:10264C0000127A0000093D00ABAAAAAA0346024474
:10265C00934200D1704703F8011BF9E770B50026CF
:10266C000C4D0D4C641BA410A64209D100F01AF8B5
:10267C0000260A4D0A4C641BA410A64205D170BD5D
:10268C0055F8043B98470136EEE755F8043B98475C
:10269C000136F2E708270008082700080827000879
:1026AC000C270008F8B500BFF8BC08BC9E46704764
:0C26BC00F8B500BFF8BC08BC9E46704793
:1026C80000000000000000000102030406070809DA
:1026D80000000000010203040203040506070809BC
:1026E8000A0B0C0D0E0F1010010200000203040566
:1026F800060708090A0B0C0D0E0F10100102000046
:042708003101000893
:04270C000D010008B3
:0C27100000127A00100000000100000020
:0400000508000645A4
:00000001FF
